{
  "_format": "hh-sol-artifact-1",
  "contractName": "MockSafeSingleton",
  "sourceName": "contracts/SafeMockContracts.sol",
  "abi": [
    {
      "anonymous": false,
      "inputs": [
        {
          "indexed": true,
          "internalType": "address",
          "name": "initiator",
          "type": "address"
        },
        {
          "indexed": false,
          "internalType": "address[]",
          "name": "owners",
          "type": "address[]"
        },
        {
          "indexed": false,
          "internalType": "uint256",
          "name": "threshold",
          "type": "uint256"
        }
      ],
      "name": "SafeSetup",
      "type": "event"
    },
    {
      "inputs": [],
      "name": "NAME",
      "outputs": [
        {
          "internalType": "string",
          "name": "",
          "type": "string"
        }
      ],
      "stateMutability": "view",
      "type": "function"
    },
    {
      "inputs": [],
      "name": "VERSION",
      "outputs": [
        {
          "internalType": "string",
          "name": "",
          "type": "string"
        }
      ],
      "stateMutability": "view",
      "type": "function"
    },
    {
      "inputs": [],
      "name": "getOwners",
      "outputs": [
        {
          "internalType": "address[]",
          "name": "",
          "type": "address[]"
        }
      ],
      "stateMutability": "view",
      "type": "function"
    },
    {
      "inputs": [],
      "name": "getThreshold",
      "outputs": [
        {
          "internalType": "uint256",
          "name": "",
          "type": "uint256"
        }
      ],
      "stateMutability": "view",
      "type": "function"
    },
    {
      "inputs": [
        {
          "internalType": "address",
          "name": "owner",
          "type": "address"
        }
      ],
      "name": "isOwner",
      "outputs": [
        {
          "internalType": "bool",
          "name": "",
          "type": "bool"
        }
      ],
      "stateMutability": "view",
      "type": "function"
    },
    {
      "inputs": [],
      "name": "nonce",
      "outputs": [
        {
          "internalType": "uint256",
          "name": "",
          "type": "uint256"
        }
      ],
      "stateMutability": "view",
      "type": "function"
    },
    {
      "inputs": [
        {
          "internalType": "address",
          "name": "",
          "type": "address"
        }
      ],
      "name": "nonces",
      "outputs": [
        {
          "internalType": "uint256",
          "name": "",
          "type": "uint256"
        }
      ],
      "stateMutability": "view",
      "type": "function"
    },
    {
      "inputs": [
        {
          "internalType": "address",
          "name": "",
          "type": "address"
        },
        {
          "internalType": "uint256",
          "name": "",
          "type": "uint256"
        }
      ],
      "name": "owners",
      "outputs": [
        {
          "internalType": "address",
          "name": "",
          "type": "address"
        }
      ],
      "stateMutability": "view",
      "type": "function"
    },
    {
      "inputs": [
        {
          "internalType": "address[]",
          "name": "_owners",
          "type": "address[]"
        },
        {
          "internalType": "uint256",
          "name": "_threshold",
          "type": "uint256"
        },
        {
          "internalType": "address",
          "name": "to",
          "type": "address"
        },
        {
          "internalType": "bytes",
          "name": "data",
          "type": "bytes"
        },
        {
          "internalType": "address",
          "name": "fallbackHandler",
          "type": "address"
        },
        {
          "internalType": "address",
          "name": "paymentToken",
          "type": "address"
        },
        {
          "internalType": "uint256",
          "name": "payment",
          "type": "uint256"
        },
        {
          "internalType": "address payable",
          "name": "paymentReceiver",
          "type": "address"
        }
      ],
      "name": "setup",
      "outputs": [],
      "stateMutability": "nonpayable",
      "type": "function"
    },
    {
      "inputs": [
        {
          "internalType": "address",
          "name": "",
          "type": "address"
        }
      ],
      "name": "thresholds",
      "outputs": [
        {
          "internalType": "uint256",
          "name": "",
          "type": "uint256"
        }
      ],
      "stateMutability": "view",
      "type": "function"
    }
  ],
  "bytecode": "0x608060405234801561001057600080fd5b506107fd806100206000396000f3fe608060405234801561001057600080fd5b506004361061009e5760003560e01c8063a3f4df7e11610066578063a3f4df7e14610159578063affed0e01461018e578063b63e800d146101a3578063e75235b8146101b8578063ffa1ad74146101cd57600080fd5b80632f54bf6e146100a35780637ecebe00146100cb5780639b3e2787146100f95780639df5f6bd14610124578063a0e67e2b14610144575b600080fd5b6100b66100b136600461050b565b6101f1565b60405190151581526020015b60405180910390f35b6100eb6100d936600461050b565b60006020819052908152604090205481565b6040519081526020016100c2565b61010c61010736600461052f565b6102ba565b6040516001600160a01b0390911681526020016100c2565b6100eb61013236600461050b565b60026020526000908152604090205481565b61014c6102f2565b6040516100c2919061055b565b610181604051806040016040528060098152602001684d6f636b205361666560b81b81525081565b6040516100c291906105a8565b306000908152602081905260409020546100eb565b6101b66101b136600461063f565b61035d565b005b306000908152600260205260409020546100eb565b61018160405180604001604052806005815260200164312e342e3160d81b81525081565b3060009081526001602090815260408083208054825181850281018501909352808352849383018282801561024f57602002820191906000526020600020905b81546001600160a01b03168152600190910190602001808311610231575b5050505050905060005b81518110156102b057836001600160a01b031682828151811061027e5761027e610734565b60200260200101516001600160a01b03160361029e575060019392505050565b806102a88161074a565b915050610259565b5060009392505050565b600160205281600052604060002081815481106102d657600080fd5b6000918252602090912001546001600160a01b03169150829050565b3060009081526001602090815260409182902080548351818402810184019094528084526060939283018282801561035357602002820191906000526020600020905b81546001600160a01b03168152600190910190602001808311610335575b5050505050905090565b886103a45760405162461bcd60e51b8152602060048201526012602482015271139bc81bdddb995c9cc81c1c9bdd9a59195960721b60448201526064015b60405180910390fd5b6000881180156103b45750888811155b6103f45760405162461bcd60e51b8152602060048201526011602482015270125b9d985b1a59081d1a1c995cda1bdb19607a1b604482015260640161039b565b30600090815260016020526040902061040e908b8b61046b565b5030600090815260026020526040908190208990555133907f9f7ea12b584e639128b2cae69de6ca3335a28b01235291afa40ce814fdf65f3590610457908d908d908d90610771565b60405180910390a250505050505050505050565b8280548282559060005260206000209081019282156104be579160200282015b828111156104be5781546001600160a01b0319166001600160a01b0384351617825560209092019160019091019061048b565b506104ca9291506104ce565b5090565b5b808211156104ca57600081556001016104cf565b6001600160a01b03811681146104f857600080fd5b50565b8035610506816104e3565b919050565b60006020828403121561051d57600080fd5b8135610528816104e3565b9392505050565b6000806040838503121561054257600080fd5b823561054d816104e3565b946020939093013593505050565b6020808252825182820181905260009190848201906040850190845b8181101561059c5783516001600160a01b031683529284019291840191600101610577565b50909695505050505050565b600060208083528351808285015260005b818110156105d5578581018301518582016040015282016105b9565b506000604082860101526040601f19601f8301168501019250505092915050565b60008083601f84011261060857600080fd5b50813567ffffffffffffffff81111561062057600080fd5b60208301915083602082850101111561063857600080fd5b9250929050565b6000806000806000806000806000806101008b8d03121561065f57600080fd5b8a3567ffffffffffffffff8082111561067757600080fd5b818d0191508d601f83011261068b57600080fd5b81358181111561069a57600080fd5b8e60208260051b85010111156106af57600080fd5b60208381019d50909b508d013599506106ca60408e016104fb565b985060608d01359150808211156106e057600080fd5b506106ed8d828e016105f6565b9097509550610700905060808c016104fb565b935061070e60a08c016104fb565b925060c08b0135915061072360e08c016104fb565b90509295989b9194979a5092959850565b634e487b7160e01b600052603260045260246000fd5b60006001820161076a57634e487b7160e01b600052601160045260246000fd5b5060010190565b6040808252810183905260008460608301825b868110156107b4578235610797816104e3565b6001600160a01b0316825260209283019290910190600101610784565b506020939093019390935250939250505056fea2646970667358221220132c6fd638f8cc4714615dd81812117f087bfc37f5fba9bf33cd72cfc93db6ec64736f6c63430008130033",
  "linkReferences": {},
  "deployedLinkReferences": {}
}