{
  "_format": "hh-sol-artifact-1",
  "contractName": "MockSafeSingleton",
  "sourceName": "contracts/SafeMockContracts.sol",
  "abi": [
    {
      "anonymous": false,
      "inputs": [
        {
          "indexed": true,
          "internalType": "address",
          "name": "initiator",
          "type": "address"
        },
        {
          "indexed": false,
          "internalType": "address[]",
          "name": "owners",
          "type": "address[]"
        },
        {
          "indexed": false,
          "internalType": "uint256",
          "name": "threshold",
          "type": "uint256"
        }
      ],
      "name": "SafeSetup",
      "type": "event"
    },
    {
      "inputs": [],
      "name": "NAME",
      "outputs": [
        {
          "internalType": "string",
          "name": "",
          "type": "string"
        }
      ],
      "stateMutability": "view",
      "type": "function"
    },
    {
      "inputs": [],
      "name": "VERSION",
      "outputs": [
        {
          "internalType": "string",
          "name": "",
          "type": "string"
        }
      ],
      "stateMutability": "view",
      "type": "function"
    },
    {
      "inputs": [],
      "name": "getOwners",
      "outputs": [
        {
          "internalType": "address[]",
          "name": "",
          "type": "address[]"
        }
      ],
      "stateMutability": "view",
      "type": "function"
    },
    {
      "inputs": [],
      "name": "getThreshold",
      "outputs": [
        {
          "internalType": "uint256",
          "name": "",
          "type": "uint256"
        }
      ],
      "stateMutability": "view",
      "type": "function"
    },
    {
      "inputs": [],
      "name": "nonce",
      "outputs": [
        {
          "internalType": "uint256",
          "name": "",
          "type": "uint256"
        }
      ],
      "stateMutability": "view",
      "type": "function"
    },
    {
      "inputs": [
        {
          "internalType": "address",
          "name": "",
          "type": "address"
        }
      ],
      "name": "nonces",
      "outputs": [
        {
          "internalType": "uint256",
          "name": "",
          "type": "uint256"
        }
      ],
      "stateMutability": "view",
      "type": "function"
    },
    {
      "inputs": [
        {
          "internalType": "address",
          "name": "",
          "type": "address"
        },
        {
          "internalType": "uint256",
          "name": "",
          "type": "uint256"
        }
      ],
      "name": "owners",
      "outputs": [
        {
          "internalType": "address",
          "name": "",
          "type": "address"
        }
      ],
      "stateMutability": "view",
      "type": "function"
    },
    {
      "inputs": [
        {
          "internalType": "address[]",
          "name": "_owners",
          "type": "address[]"
        },
        {
          "internalType": "uint256",
          "name": "_threshold",
          "type": "uint256"
        },
        {
          "internalType": "address",
          "name": "to",
          "type": "address"
        },
        {
          "internalType": "bytes",
          "name": "data",
          "type": "bytes"
        },
        {
          "internalType": "address",
          "name": "fallbackHandler",
          "type": "address"
        },
        {
          "internalType": "address",
          "name": "paymentToken",
          "type": "address"
        },
        {
          "internalType": "uint256",
          "name": "payment",
          "type": "uint256"
        },
        {
          "internalType": "address payable",
          "name": "paymentReceiver",
          "type": "address"
        }
      ],
      "name": "setup",
      "outputs": [],
      "stateMutability": "nonpayable",
      "type": "function"
    },
    {
      "inputs": [
        {
          "internalType": "address",
          "name": "",
          "type": "address"
        }
      ],
      "name": "thresholds",
      "outputs": [
        {
          "internalType": "uint256",
          "name": "",
          "type": "uint256"
        }
      ],
      "stateMutability": "view",
      "type": "function"
    }
  ],
  "bytecode": "0x608060405234801561001057600080fd5b506106c9806100206000396000f3fe608060405234801561001057600080fd5b50600436106100935760003560e01c8063a3f4df7e11610066578063a3f4df7e1461012b578063affed0e014610160578063b63e800d14610175578063e75235b81461018a578063ffa1ad741461019f57600080fd5b80637ecebe00146100985780639b3e2787146100cb5780639df5f6bd146100f6578063a0e67e2b14610116575b600080fd5b6100b86100a6366004610414565b60006020819052908152604090205481565b6040519081526020015b60405180910390f35b6100de6100d9366004610438565b6101c3565b6040516001600160a01b0390911681526020016100c2565b6100b8610104366004610414565b60026020526000908152604090205481565b61011e6101fb565b6040516100c29190610464565b610153604051806040016040528060098152602001684d6f636b205361666560b81b81525081565b6040516100c291906104b1565b306000908152602081905260409020546100b8565b610188610183366004610548565b610266565b005b306000908152600260205260409020546100b8565b61015360405180604001604052806005815260200164312e342e3160d81b81525081565b600160205281600052604060002081815481106101df57600080fd5b6000918252602090912001546001600160a01b03169150829050565b3060009081526001602090815260409182902080548351818402810184019094528084526060939283018282801561025c57602002820191906000526020600020905b81546001600160a01b0316815260019091019060200180831161023e575b5050505050905090565b886102ad5760405162461bcd60e51b8152602060048201526012602482015271139bc81bdddb995c9cc81c1c9bdd9a59195960721b60448201526064015b60405180910390fd5b6000881180156102bd5750888811155b6102fd5760405162461bcd60e51b8152602060048201526011602482015270125b9d985b1a59081d1a1c995cda1bdb19607a1b60448201526064016102a4565b306000908152600160205260409020610317908b8b610374565b5030600090815260026020526040908190208990555133907f9f7ea12b584e639128b2cae69de6ca3335a28b01235291afa40ce814fdf65f3590610360908d908d908d9061063d565b60405180910390a250505050505050505050565b8280548282559060005260206000209081019282156103c7579160200282015b828111156103c75781546001600160a01b0319166001600160a01b03843516178255602090920191600190910190610394565b506103d39291506103d7565b5090565b5b808211156103d357600081556001016103d8565b6001600160a01b038116811461040157600080fd5b50565b803561040f816103ec565b919050565b60006020828403121561042657600080fd5b8135610431816103ec565b9392505050565b6000806040838503121561044b57600080fd5b8235610456816103ec565b946020939093013593505050565b6020808252825182820181905260009190848201906040850190845b818110156104a55783516001600160a01b031683529284019291840191600101610480565b50909695505050505050565b600060208083528351808285015260005b818110156104de578581018301518582016040015282016104c2565b506000604082860101526040601f19601f8301168501019250505092915050565b60008083601f84011261051157600080fd5b50813567ffffffffffffffff81111561052957600080fd5b60208301915083602082850101111561054157600080fd5b9250929050565b6000806000806000806000806000806101008b8d03121561056857600080fd5b8a3567ffffffffffffffff8082111561058057600080fd5b818d0191508d601f83011261059457600080fd5b8135818111156105a357600080fd5b8e60208260051b85010111156105b857600080fd5b60208381019d50909b508d013599506105d360408e01610404565b985060608d01359150808211156105e957600080fd5b506105f68d828e016104ff565b9097509550610609905060808c01610404565b935061061760a08c01610404565b925060c08b0135915061062c60e08c01610404565b90509295989b9194979a5092959850565b6040808252810183905260008460608301825b86811015610680578235610663816103ec565b6001600160a01b0316825260209283019290910190600101610650565b506020939093019390935250939250505056fea2646970667358221220963ff565fa0d5c32b949e6fb1a0a04abc573be7cbc7b5c08000f4467d49ddf5964736f6c63430008130033",
  "linkReferences": {},
  "deployedLinkReferences": {}
}